S010000050726F6A656374432E73726563FA
S11300000C942A000C9447000C9447000C9447006D
S11300100C9447000C9447000C9447000C94470040
S11300200C9447000C9447000C9411020C94470064
S11300300C9447000C9447000C9447000C94470020
S11300400C9447000C9447000C9447000C94470010
S11300500C94470011241FBECFE5D8E0DEBFCDBF0E
S113006010E0A0E6B0E0EAE1F2E402C005900D92EF
S1130070AC3CB107D9F718E0ACECB0E001C01D927C
S1130080A631B107E1F70E942C1F0C940B210C94AC
S11300900000442351F041E050E09A0102C0220FD5
S11300A0331F6A95E2F7822B089521E030E0A9011D
S11300B002C0440F551F6A95E2F7BA016095862382
S11300C0089521E030E0A90102C0440F551F6A954C
S11300D0E2F7842308958FEF64E040E00E94490032
S11300E085BB000083B3809560E00E946100882393
S11300F009F08AC083B3809561E00E94610088237F
S113010009F084C083B3809562E00E946100882373
S113011009F07EC083B3809563E00E946100882368
S113012009F078C08FEF65E040E00E94490085BB8C
S1130130000083B3809560E00E946100882309F089
S11301406BC083B3809561E00E946100882309F04D
S113015065C083B3809562E00E946100882309F042
S11301605FC083B3809563E00E946100882309F037
S113017059C08FEF66E040E00E94490085BB000053
S113018083B3809560E00E946100882309F04CC02D
S113019083B3809561E00E946100882309F046C022
S11301A083B3809562E00E946100882309F040C017
S11301B083B3809563E00E9461008823D9F58FEFB3
S11301C067E040E00E94490085BB000083B380954E
S11301D060E00E946100882379F583B3809561E033
S11301E00E946100882351F583B3809562E00E94E8
S11301F06100882329F583B3809563E00E94610040
S1130200882301F184E4089581E3089582E3089545
S113021083E3089581E4089584E3089585E30895CC
S113022086E3089582E4089587E3089588E30895B2
S113023089E3089583E408958AE2089580E30895A4
S113024083E2089580E008958FEF64E040E00E9427
S113025049008BBB000089B3809560E00E94610077
S1130260882309F08AC089B3809561E00E94610007
S1130270882309F084C089B3809562E00E946100FC
S1130280882309F07EC089B3809563E00E946100F1
S1130290882309F078C08FEF65E040E00E944900B0
S11302A08BBB000089B3809560E00E9461008823C5
S11302B009F06BC089B3809561E00E9461008823D6
S11302C009F065C089B3809562E00E9461008823CB
S11302D009F05FC089B3809563E00E9461008823C0
S11302E009F059C08FEF66E040E00E9449008BBBE3
S11302F0000089B3809560E00E946100882309F0C2
S11303004CC089B3809561E00E946100882309F0A4
S113031046C089B3809562E00E946100882309F099
S113032040C089B3809563E00E9461008823D9F5B9
S11303308FEF67E040E00E9449008BBB000089B367
S1130340809560E00E946100882379F589B38095E7
S113035061E00E946100882351F589B3809562E0D1
S11303600E946100882329F589B3809563E00E9487
S11303706100882301F184E4089581E3089582E310
S1130380089583E3089581E4089584E3089585E35B
S1130390089586E3089582E4089587E3089588E341
S11303A0089589E3089583E408958AE2089580E333
S11303B0089583E2089580E00895DC01CB018093E1
S11303C0C4009093C500A093C600B093C700809367
S11303D0CC009093CD00A093CE00B093CF000895AD
S11303E08BE083BF8DE78CBF82E089BF12BE809112
S11303F0C4009091C500A091C600B091C70080933D
S1130400CC009093CD00A093CE00B093CF008FB7D3
S113041080688FBF089513BE089581E08093D00053
S113042008951F920F920FB60F9211242F933F93AA
S11304304F935F936F937F938F939F93AF93BF93E8
S1130440EF93FF938091CC009091CD00A091CE00CA
S1130450B091CF000197A109B1098093CC0090938A
S1130460CD00A093CE00B093CF000097A105B105B5
S113047091F40E940D028091C4009091C500A09156
S1130480C600B091C7008093CC009093CD00A09398
S1130490CE00B093CF00FF91EF91BF91AF919F91A8
S11304A08F917F916F915F914F913F912F910F9019
S11304B00FBE0F901F901895CF93DF930F92CDB777
S11304C0DEB719829981981730F499819F5F9983D7
S11304D099819817D0F30F90DF91CF910895CF931E
S11304E0C82F88B363E040E00E94490088BBC2BBC8
S11304F088B364E041E00E94490088BB87E00E9421
S11305005C0288B364E040E00E94490088BB87E055
S11305100E945C02CF910895CF93C82F88B363E003
S113052041E00E94490088BBC2BB88B364E041E05B
S11305300E94490088BB87E00E945C0288B364E0A3
S113054040E00E94490088BB87E00E945C02CF9192
S11305500895662321F480580E946F020895613043
S113056019F480540E946F0208950F931F93CF9340
S1130570DF93062F172F883088F4880F880F880F91
S1130580805C0E946F02C02FD12F18E089910E94D5
S11305908C021150D9F780E80E946F02DF91CF914D
S11305A01F910F9108950E948C0208950F931F9339
S11305B0CF938C01FC018081882351F0C0E00E941C
S11305C08C02CF5FF801EC0FF11D80818823B9F70D
S11305D0CF911F910F91089588E30E946F0286E0E6
S11305E00E946F028CE00E946F0281E00E946F0201
S11305F00895E82FF92F80E090E011920196883059
S11306009105D9F708950F931F93CF93DF93E3E8F0
S1130610F1E083E198E010823E96E817F907D9F7F4
S1130620C3E4D1E003E811E0CE010E94F902289668
S1130630C017D107C9F7DF91CF911F910F9108958A
S113064081E080930F018093110110921201809335
S1130650130124E02093140197E090931501109264
S1130660160190931D0190931E0142E340931901DA
S113067010921B0110921F0182E0809329013FEF29
S113068030932B0110922C0166E060932D0110929F
S11306902E0190932F011092300190933701909383
S11306A038014093330110923501109239019BE0D7
S11306B090931C01909336013093200158E050939D
S11306C021018093220145E040932301609324019A
S11306D09FE0909325012093260180932701309376
S11306E03A0150933B0180933C0140933D01809338
S11306F03E0190933F01209340018093410108956E
S1130700823071F0833028F4882341F0813071F411
S11307100FC0833039F0843049F406C081E0089575
S113072084E0089588E0089580E1089580E00895C4
S113073082E008950F931F93CF93FC010481112746
S113074007FD10958781992787FD9095268133278A
S113075027FD3095080F191F000F111F000F111FDF
S1130760000F111F020F131F0D5B1E4FD801CC91F8
S113077085810E9480038C2BF8018083CF911F9187
S11307800F9108950F931F93CF93FC0104811127B8
S113079007FD10958781992787FD9095268133273A
S11307A027FD3095080F191F000F111F000F111F8F
S11307B0000F111F020F131F0D5B1E4FD801CC91A8
S11307C085810E9480038C2BF8018083CF911F9137
S11307D00F910895FC0182858F3F59F018162CF46F
S11307E091E091878150828704C0882311F48FEFB0
S11307F0818785819085891B8530CCF094819150C7
S1130800948399238CF482818350823038F48381D9
S1130810843021F0118281E0808702C081E08183ED
S1130820148284E085831FC0855085831CC088237F
S1130830CCF494819F5F948398308CF082818350B0
S1130840823038F48381843021F011828FEF8087E5
S113085002C081E0818387E08483158204C08B5FBA
S1130860858301C0858386819185891BBAF497812C
S1130870915097839F3F79F482818350823030F482
S11308808381843019F01182128602C081E0818351
S1130890168217820895885F868308958830CCF085
S11308A097819F5F9783913089F48281835082304E
S11308B038F48381843021F0118283E0828702C07E
S11308C081E0818387E08683178208958850868338
S11308D0089586830895FC0185819085891B853060
S11308E064F0948191509483992324F4148284E0D5
S11308F0858312C0855085830FC0882364F4948156
S11309009F5F9483983024F087E08483158204C029
S11309108B5F858301C0858386819185891B5AF409
S11309209781915097839F3F19F4168217820895F7
S1130930885F86830895883064F097819F5F9783EA
S1130940913021F487E08683178208958850868346
S113095008958683089580918301813069F4E1E9E3
S1130960F1E004C08F5F3E96883741F0908191306A
S1130970C9F3883731F404C080E008958FEF0895F7
S11309808FEF08952F923F924F925F926F927F92D2
S11309908F929F92AF92BF92CF92DF92EF92FF928B
S11309A00F931F93CF93DF93CDB7DEB727970FB67F
S11309B0F894DEBF0FBECDBF7C01462F4195242F96
S11309C0332727FD3095862F90E02C010894411C95
S11309D0511C241535050CF07BC1889F1001899F9B
S11309E0300C989F300C11246627772762197309FD
S11309F07A8369833901B42E2C833D834B8303E8C6
S1130A0011E088248394AA24AA94CC246894C2F87C
S1130A100F2EF3E09F2EF02D55C10E94AB04582FEA
S1130A20EE81FF816E9EC0016F9E900D7E9E900DA3
S1130A3011248215930529F029813A81821793079D
S1130A40A1F4852F90E0880F991F9C01220F331F7A
S1130A50220F331F220F331FB901681B790BCB01FF
S1130A60800F911FFC01108213C0852F90E0880F26
S1130A70991F9C01220F331F220F331F220F331F94
S1130A80B901681B790BCB01800F911FFC01808297
S1130A90852F90E0880F991F9C01220F331F220F8E
S1130AA0331F220F331FB901681B790BCB01800F51
S1130AB0911FFC011182F7014381852F90E0880F7B
S1130AC0991F9C01220F331F220F331F220F331F44
S1130AD0B901681B790BCB01800F911FFC01438383
S1130AE0852F90E0880F991F9C01220F331F220F3E
S1130AF0331F220F331FB901681B790BCB01800F01
S1130B00911FFC011282852F90E0880F991F9C0190
S1130B10220F331F220F331F220F331FB901681B0B
S1130B20790BCB01800F911FFC01A286852F90E0E9
S1130B30880F991F9C01220F331F220F331F220F8E
S1130B40331FB901681B790BCB01800F911FFC0186
S1130B50C386852F90E0880F991F9C01220F331FB5
S1130B60220F331F220F331FB901681B790BCB01EE
S1130B70800F911FFC01C486852F90E0880F991F78
S1130B809C01220F331F220F331F220F331FB90181
S1130B90681B790BCB01800F911FFC019586F7012F
S1130BA04481852F90E0880F991F9C01220F331FE9
S1130BB0220F331F220F331FB901681B790BCB019E
S1130BC0800F911FFC014483852F90E0880F991FAB
S1130BD09C01220F331F220F331F220F331FB90131
S1130BE0681B790BCB01800F911FF70125812D0D17
S1130BF0FC012583852F90E0880F991F9C01220F0B
S1130C00331F220F331F220F331FB901681B790BC7
S1130C10CB01800F911FF70126812B0DFC01268348
S1130C20F7014781852F90E0880F991F9C01220FBF
S1130C30331F220F331F220F331FB901681B790B97
S1130C40CB01800F911FFC014783F7014085852F5D
S1130C5090E0880F991F9C01220F331F220F331F2E
S1130C60220F331FB901681B790BCB01800F911F31
S1130C70FC014087F7014185852F90E0880F991F7B
S1130C809C01220F331F220F331F220F331FB90180
S1130C90681B790BCB01800F911FFC014187D39412
S1130CA02D2D332727FD30953F832E8324153505BD
S1130CB00CF4B3CEB3946B2C772467FC7094641457
S1130CC0750434F43C813E836D816F83DB80A5CE53
S1130CD027960FB6F894DEBF0FBECDBFDF91CF913C
S1130CE01F910F91FF90EF90DF90CF90BF90AF9046
S1130CF09F908F907F906F905F904F903F902F9038
S1130D000895AF92BF92CF92DF92EF92FF920F932A
S1130D101F93CF93DF93EC018B81882309F476C072
S1130D2090910F01891791F1209113019C8129174A
S1130D3069F5209114019D81291741F52091150130
S1130D409E81291719F5209116019F812917F1F425
S1130D50843071F418828A8190E0FC01E15FFE4FD7
S1130D6084549F4F2189DC018C91820F818B0CC0AC
S1130D7080911901882341F480911C018150809352
S1130D801C0189E18093190181E089838B81909111
S1130D902901981791F120912D019C81291769F55A
S1130DA020912E019D81291741F520912F019E81CB
S1130DB0291719F5209130019F812917F1F4843006
S1130DC071F418828A8190E0FC01E75DFE4F84543F
S1130DD09F4F2189DC018C91820F818B0CC0809103
S1130DE03301882341F48091360181508093360188
S1130DF089E18093330181E089838B81843031F4EC
S1130E008D85882309F05FC218825DC28D85882391
S1130E1011F481E089838A81813009F020C18981BC
S1130E20882309F41CC10E94AB04082F0F2EF3E899
S1130E30CF2EF1E0DF2EF02D90E0880F991F9C015A
S1130E40220F331F220F331F220F331F281B390B8E
S1130E50F601E20FF31F81E08083802F90E0880F7A
S1130E60991F9C01220F331F220F331F220F331FA0
S1130E70281B390BF601E20FF31F1182802F90E03B
S1130E80880F991F9C01220F331F220F331F220F3B
S1130E90331F281B390BF601E20FF31F1382802F37
S1130EA090E0880F991F9C01220F331F220F331FDC
S1130EB0220F331F281B390BF601E20FF31F128296
S1130EC0802F90E0880F991F9C01220F331F220F5F
S1130ED0331F220F331F281B390BF601E20FF31FB8
S1130EE08FEF8287802F90E0880F991F9C01220F3B
S1130EF0331F220F331F220F331F281B390BF60118
S1130F00E20FF31F43E04387802F90E0880F991F7F
S1130F109C01220F331F220F331F220F331F281B64
S1130F20390BF601E20FF31F44870E949F20AC01A6
S1130F30802F90E0880F991F9C01220F331F220FEE
S1130F40331F220F331F281B390B2C0D3D1DCA01E3
S1130F5062E070E00E9437208F5FF90185874C8141
S1130F60802F90E0880F991F9C01220F331F220FBE
S1130F70331F220F331F281B390BF601E20FF31F17
S1130F8044834D81802F90E0880F991F9C01220F8C
S1130F90331F220F331F220F331F281B390BF60177
S1130FA0E20FF31F45834E81802F90E0880F991F35
S1130FB09C01220F331F220F331F220F331F281BC4
S1130FC0390BF601E20FF31F46834F81802F90E027
S1130FD0880F991F9C01220F331F220F331F220FEA
S1130FE0331F281B390BF601E20FF31F47830E94BE
S1130FF09F20AC01802F90E0880F991F9C01220F45
S1131000331F220F331F220F331F281B390B2C0DC4
S11310103D1D0F2EF3E0EF2EFF24F02DCA01B70182
S11310200E9437208150D90118968C930E949F20EA
S1131030AC01802F90E0880F991F9C01220F331F71
S1131040220F331F220F331F281B390B2C0D3D1D7C
S1131050CA01B7010E9437208150F90181878A8132
S1131060823049F48981882331F083E08B83CE0177
S113107063E00E94C2048A81833009F012C18D8525
S1131080882309F00EC1FF24FA9403E811E0CC246C
S1131090C394DD246894D2F80F2EF3E0BF2EF02D14
S11310A0EE246894E3F80F2EFBE0AF2EF02D0E949F
S11310B0AB04482F90E0880F991F9C01220F331F27
S11310C0220F331F220F331F281B390BF801E20FA5
S11310D0F31FC082842F90E0880F991F9C01220F78
S11310E0331F220F331F220F331F281B390BF80124
S11310F0E20FF31F1182842F90E0880F991F9C0147
S1131100220F331F220F331F220F331F281B390BCB
S1131110F801E20FF31F1382842F90E0880F991FC8
S11311209C01220F331F220F331F220F331F281B52
S1131130390BF801E20FF31FD282842F90E0880F5D
S1131140991F9C01220F331F220F331F220F331FBD
S1131150281B390BF801E20FF31FB286842F90E0AD
S1131160880F991F9C01220F331F220F331F220F58
S1131170331F281B390BF801E20FF31FE386842F7A
S113118090E0880F991F9C01220F331F220F331FF9
S1131190220F331F281B390BF801E20FF31FE486DB
S11311A0842F90E0880F991F9C01220F331F220F78
S11311B0331F220F331F281B390BF801E20FF31FD3
S11311C0A5865C81842F90E0880F991F9C01220FD3
S11311D0331F220F331F220F331F281B390BF80133
S11311E0E20FF31F54835D81842F90E0880F991FD1
S11311F09C01220F331F220F331F220F331F281B82
S1131200390BF801E20FF31F55835E81842F90E0C0
S1131210880F991F9C01220F331F220F331F220FA7
S1131220331F281B390BF801E20FF31F56835F812C
S1131230842F90E0880F991F9C01220F331F220FE7
S1131240331F220F331F281B390BF801E20FF31F42
S11312505783842F90E0880F991F9C01220F331F1E
S1131260220F331F220F331F281B390BF801E20F03
S1131270F31FF086842F90E0880F991F9C01220FA2
S1131280331F220F331F220F331F281B390BF80182
S1131290E20FF31F1186F394F2E0FF1609F007CF73
S11312A018828A81843061F48D85882349F483E02F
S11312B08B8318861986CE0162E00E94C2041882CC
S11312C0898181111882DF91CF911F910F91FF9035
S11312D0EF90DF90CF90BF90AF9008951F93CF937E
S11312E0DF93C3E4D1E010E0812FBE010E94B50278
S11312F0812F60E00E94A902812F0E94D3021F5F08
S11313002896183089F7DF91CF911F910895AF92F5
S1131310BF92CF92DF92EF92FF920F931F93CF93DE
S1131320DF93C3E4D1E003E811E0CE010E94F902A7
S11313302896C017D107C9F780911E0190911D010D
S11313408917A9F48FE091E00E946B0410921E01AA
S113135080911901882319F081508093190180919B
S11313601B01882339F0815080931B0103C08F5FD8
S113137080931E018091190180FD04C08FE091E0EB
S11313800E94C20380913801909137018917A9F412
S113139089E291E00E946B0410923801809133013C
S11313A0882319F08150809333018091350188237B
S11313B039F081508093350103C08F5F80933801E9
S11313C08091330180FD04C089E291E00E94C20350
S11313D003E811E00F2EFCE0EF2EFF24F02DE00EC9
S11313E0F11E0F2EFDE0AF2EBB24F02DA00EB11E7A
S11313F0CC24DD24D8018C918823D1F1E7018881A4
S1131400F701319790818917E9F4F50180818F3FC5
S113141029F0815080838C918823B1F0C601880F14
S1131420991F9C01220F331F220F331F220F331FDA
S1131430A901481B590BCA018D579E4F0E94EA030C
S1131440188202C08F5F8883C601880F991FEC0140
S1131450CC0FDD1FCC0FDD1FCC0FDD1FC81BD90B3C
S1131460CD57DE4FCE010E949A03CE010E94810621
S11314700894C11CD11C025F1F4F4EE050E0E40EE3
S1131480F51EA40EB51E58E7C516D10409F0B2CF57
S11314900E946E09DF91CF911F910F91FF90EF9001
S11314A0DF90CF90BF90AF900895AF92BF92CF924C
S11314B0DF92EF92FF920F931F93CF93DF938130CC
S11314C009F419C1813020F0823009F030C31CC303
S11314D00E949F2064E070E00E943720EE2468940C
S11314E0E1F8E80E0E949F201FEFC3E8D1E0DD245D
S11314F0D394CC246894C2F803E00F2EFBE0FF2EB3
S1131500F02D0F2EF9E1BF2EF02D0E94AB04282FF1
S113151030E0220F331FA901440F551F440F551FFC
S1131520440F551F421B530BFE01E40FF51FD082DD
S1131530282F30E0220F331FA901440F551F440FF9
S1131540551F440F551F421B530BFE01E40FF51F9B
S11315501182282F30E0220F331FA901440F551F99
S1131560440F551F440F551F421B530BFE01E40F3C
S1131570F51F1382282F30E0220F331FA901440FD7
S1131580551F440F551F440F551F421B530BFE019B
S1131590E40FF51FC282282F30E0220F331FA90168
S11315A0440F551F440F551F440F551F421B530B27
S11315B0FE01E40FF51F0287282F30E0220F331FAE
S11315C0A901440F551F440F551F440F551F421BBB
S11315D0530BFE01E40FF51FF386282F30E0220F92
S11315E0331FA901440F551F440F551F440F551FA6
S11315F0421B530BFE01E40FF51FF486282F30E045
S1131600220F331FA901440F551F440F551F440FC8
S1131610551F421B530BFE01E40FF51FB586282FFF
S113162030E0220F331FA901440F551F440F551FEB
S1131630440F551F421B530BFE01E40FF51FE482B8
S1131640282F30E0220F331FA901440F551F440FE8
S1131650551F440F551F421B530BFE01E40FF51F8A
S11316601583282F30E0220F331FA901440F551F83
S1131670440F551F440F551F421B530BFE01E40F2B
S1131680F51F0683282F30E0220F331FA901440FD2
S1131690551F440F551F440F551F421B530BFE018A
S11316A0E40FF51F1782282F30E0220F331FA90102
S11316B0440F551F440F551F440F551F421B530B16
S11316C0FE01E40FF51F1087282F30E0C901880FB1
S11316D0991F9C01220F331F220F331F220F331F28
S11316E0281B390BFE01E20FF31F11861F5F123016
S11316F009F00BCF1CC20E94AB04C82F03E811E011
S113170090E0880F991F9C01220F331F220F331F73
S1131710220F331F281B390BF801E20FF31F81E05E
S113172080838C2F90E0880F991F9C01220F331F18
S1131730220F331F220F331F281B390BF801E20F2E
S1131740F31F11828C2F90E0880F991F9C01220FA8
S1131750331F220F331F220F331F281B390BF801AD
S1131760E20FF31F13828C2F90E0880F991F9C01C6
S1131770220F331F220F331F220F331F281B390B55
S1131780F801E20FF31F12828C2F90E0880F991F4B
S11317909C01220F331F220F331F220F331F281BDC
S11317A0390BF801E20FF31F12868C2F90E0880F9B
S11317B0991F9C01220F331F220F331F220F331F47
S11317C0281B390BF801E20FF31F42E043878C2FEB
S11317D090E0880F991F9C01220F331F220F331FA3
S11317E0220F331F281B390BF801E20FF31F448724
S11317F08C2F90E0880F991F9C01220F331F220F1A
S1131800331F220F331F281B390BF801E20FF31F7C
S113181015860E949F20AC018C2F90E0880F991FA1
S11318209C01220F331F220F331F220F331F281B4B
S1131830390BF801E20FF31FCA0168E070E00E945F
S1131840372084830E949F20AC018C2F90E0880F66
S1131850991F9C01220F331F220F331F220F331FA6
S1131860281B390BF801E20FF31FCA0165E070E091
S11318700E94372085838C2F90E0880F991F9C014C
S1131880220F331F220F331F220F331F281B390B44
S1131890F801E20FF31F8FEF86838C2F90E0880FFF
S11318A0991F9C01220F331F220F331F220F331F56
S11318B0281B390BF801E20FF31F17820E949F20A7
S11318C0AC018C2F90E0880F991F9C01220F331FCD
S11318D0220F331F220F331F281B390BF801E20F8D
S11318E0F31FCA0162E070E00E94372080878C2FCA
S11318F090E0880F991F9C01220F331F220F331F82
S1131900220F331FA901481B590B040F151FF8019F
S113191011860DC10E94AB04282F30E0220F331F23
S1131920A901440F551F440F551F440F551F421B57
S1131930530BFE01E40FF51FF082282F30E0220F35
S1131940331FA901440F551F440F551F440F551F42
S1131950421B530BFE01E40FF51F1182282F30E0C8
S1131960220F331FA901440F551F440F551F440F65
S1131970551F421B530BFE01E40FF51F0383282F51
S113198030E0220F331FA901440F551F440F551F88
S1131990440F551F421B530BFE01E40FF51FF28247
S11319A0282F30E0220F331FA901440F551F440F85
S11319B0551F440F551F421B530BFE01E40FF51F27
S11319C0D286282F30E0220F331FA901440F551F60
S11319D0440F551F440F551F421B530BFE01E40FC8
S11319E0F51F0387282F30E0220F331FA901440F6E
S11319F0551F440F551F440F551F421B530BFE0127
S1131A00E40FF51F0487282F30E0220F331FA901AC
S1131A10440F551F440F551F440F551F421B530BB2
S1131A20FE01E40FF51FC586282F30E0220F331F77
S1131A30A901440F551F440F551F440F551F421B46
S1131A40530BFE01E40FF51FE482282F30E0220F30
S1131A50331FA901440F551F440F551F440F551F31
S1131A60421B530BFE01E40FF51F1583282F30E0B2
S1131A70220F331FA901440F551F440F551F440F54
S1131A80551F421B530BFE01E40FF51FB682282F8E
S1131A9030E0220F331FA901440F551F440F551F77
S1131AA0440F551F421B530BFE01E40FF51F178211
S1131AB0282F30E0220F331FA901440F551F440F74
S1131AC0551F440F551F421B530BFE01E40FF51F16
S1131AD01086282F30E0C901880F991F9C01220F1E
S1131AE0331F220F331F220F331F281B390BFE0114
S1131AF0E20FF31F11861F5F153009F00BCFE3943B
S1131B00F8E0EF1691F413C0EE24AA24C3E8D1E060
S1131B10FF24F39403E0DD24DA940F2EF5E0CF2EB6
S1131B20F02D0F2EF7E0BF2EF02D1A2DF3CEDF91FE
S1131B30CF911F910F91FF90EF90DF90CF90BF90C6
S1131B40AF9008950F931F93CF93DF93D82F0E94E4
S1131B50AB04C82F03E811E090E0880F991F9C01A3
S1131B60220F331F220F331F220F331F281B390B61
S1131B70F801E20FF31F81E080838C2F90E0880F3F
S1131B80991F9C01220F331F220F331F220F331F73
S1131B90281B390BF801E20FF31F11828C2F90E000
S1131BA0880F991F9C01220F331F220F331F220F0E
S1131BB0331F281B390BF801E20FF31F13828C2FFC
S1131BC090E0880F991F9C01220F331F220F331FAF
S1131BD0220F331F281B390BF801E20FF31FD283A6
S1131BE08C2F90E0880F991F9C01220F331F220F26
S1131BF0331F220F331F281B390BF801E20FF31F89
S1131C00D4E0D2878C2F90E0880F991F9C01220F7B
S1131C10331F220F331F220F331F281B390BF801E8
S1131C20E20FF31F49E043878C2F90E0880F991F40
S1131C309C01220F331F220F331F220F331F281B37
S1131C40390BF801E20FF31F44878C2F90E0880FC3
S1131C50991F9C01220F331F220F331F220F331FA2
S1131C60281B390BF801E20FF31F86E985870E94D0
S1131C709F20AC018C2F90E0880F991F9C01220FAC
S1131C80331F220F331F220F331F281B390BF80178
S1131C90E20FF31FCA0164E070E00E9437208E5FF8
S1131CA084830E949F20AC018C2F90E0880F991FA1
S1131CB09C01220F331F220F331F220F331F281BB7
S1131CC0390BF801E20FF31FCA0165E070E00E94CE
S1131CD0372085838C2F90E0880F991F9C01220F59
S1131CE0331F220F331F220F331F281B390BF80118
S1131CF0E20FF31F82E086838C2F90E0880F991FF8
S1131D009C01220F331F220F331F220F331F281B66
S1131D10390BF801E20FF31F17828C2F90E0880F24
S1131D20991F9C01220F331F220F331F220F331FD1
S1131D30281B390BF801E20FF31F10868C2F90E05B
S1131D40880F991F9C01220F331F220F331F220F6C
S1131D50331F281B390BF801E20FF31F11862C2FB8
S1131D6030E0220F331FC901880F991F880F991F74
S1131D70880F991F821B930B800F911F62E00E94B2
S1131D80C2048C2F90E0880F991F9C01220F331FEF
S1131D90220F331F220F331F281B390B020F131F6F
S1131DA0F801D383DF91CF911F910F91089500978C
S1131DB0D1F01816190634F02FEF8F3F920709F06F
S1131DC0DCC009C08130910509F443C0823091051B
S1131DD009F0D3C033C01092D6001092D5008FEF13
S1131DE08093D70036C08091D5009091D60022E030
S1131DF08F3E920770F10E949F2067E070E00E947E
S1131E0037208F5F0E94A20D0E949F2060E170E046
S1131E100E9437208130910509F496C082309105E3
S1131E2024F4009709F489C09BC08230910509F419
S1131E308FC08330910509F093C08EC02091D500E6
S1131E403091D6002115310509F096C08FEF8093AB
S1131E50D7008091D7008230A1F0833061F18130C6
S1131E6009F04FC08091D5009091D60063E070E0F6
S1131E700E942320009709F044C081E00E94550A83
S1131E8040C08091D5009091D600883C910548F4DB
S1131E9080E061E00E94A90280E690E00E94D60200
S1131EA030C06EE170E00E942320009751F582E07B
S1131EB00E94550A26C08091D5009091D600883C96
S1131EC0910548F480E061E00E94A90289E690E06F
S1131ED00E94D60216C06EE170E00E942320009793
S1131EE019F482E00E94550A8091D5009091D600A1
S1131EF063E070E00E942320009719F481E00E94BF
S1131F00550A8091D100882361F48091D500909185
S1131F10D60001969093D6008093D50080E090E09F
S1131F200895813039F51092D6001092D5008FEFC4
S1131F308093D70080E090E0089580E00E94550AE5
S1131F408FEF8093D7000FC081E08093D7000BC040
S1131F5082E08093D70007C083E08093D70003C05A
S1131F608FEF8093D7001092D6001092D50081E0B5
S1131F7090E0089580E090E008958FEF9FEF08953A
S1131F807F928F929F92AF92BF92CF92DF92EF9205
S1131F90FF920F931F93CF93DF935C01DC01509664
S1131FA08C915097833009F4C8C5843054F481303F
S1131FB009F438C182300CF051C2882391F00C949A
S1131FC0F01B853009F408C785300CF4D4C586307D
S1131FD011F40C94FD17873011F00C94F01B0C9441
S1131FE0091910E0C3E8D1E001E0EE24EA940F2ED1
S1131FF0F3E0FF2EF02D0F2EF6E1DF2EF02D0E94E0
S1132000AB04482F90E0880F991F9C01220F331FC7
S1132010220F331F220F331F281B390BFE01E20F3F
S1132020F31F0083842F90E0880F991F9C01220FD7
S1132030331F220F331F220F331F281B390BFE01BE
S1132040E20FF31F1182F5015081842F90E0880F75
S1132050991F9C01220F331F220F331F220F331F9E
S1132060281B390BFE01E20FF31F5383842F90E0EA
S1132070880F991F9C01220F331F220F331F220F39
S1132080331F281B390BFE01E20FF31F0283842F39
S113209090E0880F991F9C01220F331F220F331FDA
S11320A0220F331F281B390BFE01E20FF31FE286B8
S11320B0842F90E0880F991F9C01220F331F220F59
S11320C0331F220F331F281B390BFE01E20FF31FAE
S11320D0F386842F90E0880F991F9C01220F331FF1
S11320E0220F331F220F331F281B390BFE01E20F6F
S11320F0F31FF486842F90E0880F991F9C01220F10
S1132100331F220F331F220F331F281B390BFE01ED
S1132110E20FF31FD586D50114965C911497842F92
S113212090E0880F991F9C01220F331F220F331F49
S1132130220F331F281B390BFE01E20FF31F5483B8
S1132140842F90E0880F991F9C01220F331F220FC8
S1132150331F220F331F281B390BFE01E20FF31F1D
S113216012969C911297199F902D112415968C917B
S11321701597890F858316965C911697842F90E0A6
S1132180880F991F9C01220F331F220F331F220F28
S1132190331F281B390BFE01E20FF31F56831796DA
S11321A05C911797842F90E0880F991F9C01220F50
S11321B0331F220F331F220F331F281B390BFE013D
S11321C0E20FF31F5783842F90E0880F991F9C011F
S11321D0220F331F220F331F220F331F281B390BEB
S11321E0FE01E20FF31F12968C9112978087842FC1
S11321F090E0880F991F9C01220F331F220F331F79
S1132200220F331F281B390BFE01E20FF31F118627
S11322101F5F123009F0F3CE88E01C968C931C9754
S11322200C94F01B10E0C3E8D1E001E0FF24FA9421
S1132230EE246894E1F80E94AB04482F90E0880FE4
S1132240991F9C01220F331F220F331F220F331FAC
S1132250281B390BFE01E20FF31F0083842F90E04B
S1132260880F991F9C01220F331F220F331F220F47
S1132270331F281B390BFE01E20FF31F1182F501F6
S11322805081842F90E0880F991F9C01220F331FE7
S1132290220F331F220F331F281B390BFE01E20FBD
S11322A0F31F5383842F90E0880F991F9C01220F02
S11322B0331F220F331F220F331F281B390BFE013C
S11322C0E20FF31F0283842F90E0880F991F9C0173
S11322D0220F331F220F331F220F331F281B390BEA
S11322E0FE01E20FF31FF286842F90E0880F991FFE
S11322F09C01220F331F220F331F220F331F281B71
S1132300390BFE01E20FF31FE386842F90E0880F60
S1132310991F9C01220F331F220F331F220F331FDB
S1132320281B390BFE01E20FF31FE486842F90E093
S1132330880F991F9C01220F331F220F331F220F76
S1132340331F281B390BFE01E20FF31FF586D5015D
S113235014965C911497842F90E0880F991F9C0128
S1132360220F331F220F331F220F331F281B390B59
S1132370FE01E20FF31F5483842F90E0880F991F0E
S11323809C01220F331F220F331F220F331F281BE0
S1132390390BFE01E20FF31F12969C911297199FBD
S11323A0902D112415968C911597890F8583169677
S11323B05C911697842F90E0880F991F9C01220F3F
S11323C0331F220F331F220F331F281B390BFE012B
S11323D0E20FF31F568317965C911797842F90E0B2
S11323E0880F991F9C01220F331F220F331F220FC6
S11323F0331F281B390BFE01E20FF31F5783842F71
S113240090E0880F991F9C01220F331F220F331F66
S1132410220F331F281B390BFE01E20FF31F129604
S11324208C9112978087842F90E0880F991F9C01CC
S1132430220F331F220F331F220F331F281B390B88
S1132440FE01E20FF31F11861F5F133009F0F3CE74
S11324508CE01C968C931C970C94F01BF501158151
S1132460153008F00DC1C3E8D1E001E0EE24EA9490
S11324700F2EF5E0FF2EF02DDD246894D1F80E9494
S1132480AB04482F90E0880F991F9C01220F331F43
S1132490220F331F220F331F281B390BFE01E20FBB
S11324A0F31F0083842F90E0880F991F9C01220F53
S11324B0331F220F331F220F331F281B390BFE013A
S11324C0E20FF31F1182D5015C91842F90E0880FF5
S11324D0991F9C01220F331F220F331F220F331F1A
S11324E0281B390BFE01E20FF31F5383842F90E066
S11324F0880F991F9C01220F331F220F331F220FB5
S1132500331F281B390BFE01E20FF31F0283842FB4
S113251090E0880F991F9C01220F331F220F331F55
S1132520220F331F281B390BFE01E20FF31FE28633
S1132530842F90E0880F991F9C01220F331F220FD4
S1132540331F220F331F281B390BFE01E20FF31F29
S1132550F386842F90E0880F991F9C01220F331F6C
S1132560220F331F220F331F281B390BFE01E20FEA
S1132570F31FF486842F90E0880F991F9C01220F8B
S1132580331F220F331F220F331F281B390BFE0169
S1132590E20FF31FD58614965C911497842F90E074
S11325A0880F991F9C01220F331F220F331F220F04
S11325B0331F281B390BFE01E20FF31F5483842FB2
S11325C090E0880F991F9C01220F331F220F331FA5
S11325D0220F331F281B390BFE01E20FF31F158353
S11325E016965C911697842F90E0880F991F9C0192
S11325F0220F331F220F331F220F331F281B390BC7
S1132600FE01E20FF31F568317965C911797842FF0
S113261090E0880F991F9C01220F331F220F331F54
S1132620220F331F281B390BFE01E20FF31F5783C0
S1132630842F90E0880F991F9C01220F331F220FD3
S1132640331F220F331F281B390BFE01E20FF31F28
S11326501086842F90E0880F991F9C01220F331F4E
S1132660220F331F220F331F281B390BFE01E20FE9
S1132670F31F1186F5018281181B153008F4FFCE73
S1132680D5011496EC90149712968C91E80E9E2C1A
S1132690B8E0BE1508F006C114C10E94AB04482F6F
S11326A090E0880F991F9C01220F331F220F331FC4
S11326B0220F331F281B390BFE01E20FF31F008387
S11326C0842F90E0880F991F9C01220F331F220F43
S11326D0331F220F331F281B390BFE01E20FF31F98
S11326E01182F5015081842F90E0880F991F9C017D
S11326F0220F331F220F331F220F331F281B390BC6
S1132700FE01E20FF31F5383842F90E0880F991F7B
S11327109C01220F331F220F331F220F331F281B4C
S1132720390BFE01E20FF31F0283842F90E0880F20
S1132730991F9C01220F331F220F331F220F331FB7
S1132740281B390BFE01E20FF31FD286842F90E081
S1132750880F991F9C01220F331F220F331F220F52
S1132760331F281B390BFE01E20FF31FF386842F5E
S113277090E0880F991F9C01220F331F220F331FF3
S1132780220F331F281B390BFE01E20FF31FF486BF
S1132790842F90E0880F991F9C01220F331F220F72
S11327A0331F220F331F281B390BFE01E20FF31FC7
S11327B0C586842F90E0880F991F9C01220F331F38
S11327C0220F331F220F331F281B390BFE01E20F88
S11327D0F31FE482842F90E0880F991F9C01220F3D
S11327E0331F220F331F220F331F281B390BFE0107
S11327F0E20FF31F1583D50116965C911697842F6B
S113280090E0880F991F9C01220F331F220F331F62
S1132810220F331F281B390BFE01E20FF31F5683CF
S113282017965C911797842F90E0880F991F9C014D
S1132830220F331F220F331F220F331F281B390B84
S1132840FE01E20FF31F5783842F90E0880F991F36
S11328509C01220F331F220F331F220F331F281B0B
S1132860390BFE01E20FF31F1086842F90E0880FCE
S1132870991F9C01220F331F220F331F220F331F76
S1132880281B390BFE01E20FF31F11861F5F153061
S113289009F003CF12968C91980EE92CB8E0B91583
S11328A070F40FC08824C3E8D1E001E0DD24DA9499
S11328B00F2EF5E0FF2EF02DCC246894C1F8182DCE
S11328C0ECCE81E2F50184878BC70E94AB04482FCC
S11328D090E0880F991F9C01220F331F220F331F92
S11328E0220F331F281B390BFE01E20FF31FE08276
S11328F0842F90E0880F991F9C01220F331F220F11
S1132900331F220F331F281B390BFE01E20FF31F65
S11329101182D5015C91842F90E0880F991F9C014E
S1132920220F331F220F331F220F331F281B390B93
S1132930FE01E20FF31F5383842F90E0880F991F49
S11329409C01220F331F220F331F220F331F281B1A
S1132950390BFE01E20FF31F1282842F90E0880FDF
S1132960991F9C01220F331F220F331F220F331F85
S1132970281B390BFE01E20FF31FD286842F90E04F
S1132980880F991F9C01220F331F220F331F220F20
S1132990331F281B390BFE01E20FF31F0387842F1B
S11329A090E0880F991F9C01220F331F220F331FC1
S11329B0220F331F281B390BFE01E20FF31F04877C
S11329C0123011F01E3F91F4842F90E0880F991F6C
S11329D09C01220F331F220F331F220F331F281B8A
S11329E0390BFE01E20FF31FC58627C0113011F029
S11329F01F3F91F4842F90E0880F991F9C01220FB0
S1132A00331F220F331F220F331F281B390BFE01E4
S1132A10E20FF31F858611C0842F90E0880F991F61
S1132A209C01220F331F220F331F220F331F281B39
S1132A30390BFE01E20FF31F9586F5015481842FB3
S1132A4090E0880F991F9C01220F331F220F331F20
S1132A50220F331F281B390BFE01E20FF31F54838F
S1132A60842F90E0880F991F9C01220F331F220F9F
S1132A70331F220F331F281B390BFE01E20FF31FF4
S1132A80D50115968C9115978F0D8583842F90E031
S1132A90880F991F9C01220F331F220F331F220F0F
S1132AA0331F281B390BFE01E20FF31F16968C917E
S1132AB01697810F868317965C911797842F90E061
S1132AC0880F991F9C01220F331F220F331F220FDF
S1132AD0331F281B390BFE01E20FF31F5783842F8A
S1132AE090E0880F991F9C01220F331F220F331F80
S1132AF0220F331F281B390BFE01E20FF31F12961E
S1132B008C9112978087842F90E0880F991F9C01E5
S1132B10220F331F220F331F220F331F281B390BA1
S1132B20FE01E20FF31F11861F5F133009F0CDCEB3
S1132B30F394B2E0FB16C9F41AC0FF240F2EFEEF83
S1132B407F2EF02DC3E8D1E0EE24E394DD24DA9463
S1132B5005E00F2EF3E0CF2EF02D0F2EFCE08F2E8C
S1132B60F02D0F2EFDE09F2EF02D172DAECE80E11F
S1132B70F501848735C610E0C3E8D1E0FF24F3945F
S1132B8002E0EE24EA940F2EF3E1DF2EF02D0E94F2
S1132B90AB04482F90E0880F991F9C01220F331F2C
S1132BA0220F331F220F331F281B390BFE01E20FA4
S1132BB0F31FF082842F90E0880F991F9C01220F4D
S1132BC0331F220F331F220F331F281B390BFE0123
S1132BD0E20FF31F1182D5015C91842F90E0880FDE
S1132BE0991F9C01220F331F220F331F220F331F03
S1132BF0281B390BFE01E20FF31F5383112391F4B9
S1132C00842F90E0880F991F9C01220F331F220FFD
S1132C10331F220F331F281B390BFE01E20FF31F52
S1132C20028311C0842F90E0880F991F9C01220F0A
S1132C30331F220F331F220F331F281B390BFE01B2
S1132C40E20FF31F1282842F90E0880F991F9C01DA
S1132C50220F331F220F331F220F331F281B390B60
S1132C60FE01E20FF31FE286842F90E0880F991F84
S1132C709C01220F331F220F331F220F331F281BE7
S1132C80390BFE01E20FF31F0387842F90E0880FB6
S1132C90991F9C01220F331F220F331F220F331F52
S1132CA0281B390BFE01E20FF31F0487842F90E0E9
S1132CB0880F991F9C01220F331F220F331F220FED
S1132CC0331F281B390BFE01E20FF31FD586F501D4
S1132CD05481842F90E0880F991F9C01220F331F89
S1132CE0220F331F220F331F281B390BFE01E20F63
S1132CF0F31F5483842F90E0880F991F9C01220FA7
S1132D00331F220F331F220F331F281B390BFE01E1
S1132D10E20FF31FD50112968C911297189F802D04
S1132D20112415969C911597890F858316965C91AD
S1132D301697842F90E0880F991F9C01220F331F50
S1132D40220F331F220F331F281B390BFE01E20F02
S1132D50F31F568317965C911797842F90E0880F82
S1132D60991F9C01220F331F220F331F220F331F81
S1132D70281B390BFE01E20FF31F5783842F90E0C9
S1132D80880F991F9C01220F331F220F331F220F1C
S1132D90331F281B390BFE01E20FF31F12968C918F
S1132DA012978087842F90E0880F991F9C01220F2F
S1132DB0331F220F331F220F331F281B390BFE0131
S1132DC0E20FF31F11861F5F143009F0E0CE88E292
S1132DD01C968C931C9704C50E94AB04582F63E87F
S1132DE071E090E0880F991F9C01220F331F220F7E
S1132DF0331F220F331F281B390BFB01E20FF31F74
S1132E00A1E0A083852F90E0880F991F9C01220FD9
S1132E10331F220F331F220F331F281B390BFB01D3
S1132E20E20FF31F1182F5014081852F90E0880F96
S1132E30991F9C01220F331F220F331F220F331FB0
S1132E40281B390BFB01E20FF31F4383852F90E00E
S1132E50880F991F9C01220F331F220F331F220F4B
S1132E60331F281B390BFB01E20FF31FA283852FAD
S1132E7090E0880F991F9C01220F331F220F331FEC
S1132E80220F331F281B390BFB01E20FF31F8FEFB7
S1132E908287852F90E0880F991F9C01220F331F92
S1132EA0220F331F220F331F281B390BFB01E20FA4
S1132EB0F31F42E04387852F90E0880F991F9C0100
S1132EC0220F331F220F331F220F331F281B390BEE
S1132ED0FB01E20FF31F4487852F90E0880F991FB1
S1132EE09C01220F331F220F331F220F331F281B75
S1132EF0390BFB01E20FF31F8FE08587D501149690
S1132F004C911497852F90E0880F991F9C01220FF4
S1132F10331F220F331F220F331F281B390BFB01D2
S1132F20E20FF31F4483852F90E0880F991F9C01C3
S1132F30220F331F220F331F220F331F281B390B7D
S1132F40FB01E20FF31F15969C91159712968C9135
S1132F501297890F858316964C911697852F90E0CA
S1132F60880F991F9C01220F331F220F331F220F3A
S1132F70331F281B390BFB01E20FF31F46831796FF
S1132F804C911797852F90E0880F991F9C01220F71
S1132F90331F220F331F220F331F281B390BFB0152
S1132FA0E20FF31F4783852F90E0880F991F9C0140
S1132FB0220F331F220F331F220F331F281B390BFD
S1132FC0FB01E20FF31F12968C9112978087852FD5
S1132FD090E0880F991F9C01220F331F220F331F8B
S1132FE0220F331F281B390B620F731FFB0111863D
S1132FF084E01C968C931C97F3C30E94AB04582F57
S113300063E871E090E0880F991F9C01220F331F41
S1133010220F331F220F331F281B390BFB01E20F32
S1133020F31F81E08083852F90E0880F991F9C0116
S1133030220F331F220F331F220F331F281B390B7C
S1133040FB01E20FF31F1182852F90E0880F991F77
S11330509C01220F331F220F331F220F331F281B03
S1133060390BFB01E20FF31F1382852F90E0880FC9
S1133070991F9C01220F331F220F331F220F331F6E
S1133080281B390BFB01E20FF31F83E08283852F9A
S113309090E0880F991F9C01220F331F220F331FCA
S11330A0220F331F281B390BFB01E20FF31F85E0AE
S11330B08287852F90E0880F991F9C01220F331F70
S11330C0220F331F220F331F281B390BFB01E20F82
S11330D0F31F4BE04387852F90E0880F991F9C01D5
S11330E0220F331F220F331F220F331F281B390BCC
S11330F0FB01E20FF31F4487852F90E0880F991F8F
S11331009C01220F331F220F331F220F331F281B52
S1133110390BFB01E20FF31F8EE08587D50114966E
S11331204C911497852F90E0880F991F9C01220FD2
S1133130331F220F331F220F331F281B390BFB01B0
S1133140E20FF31F448315964C911597852F90E059
S1133150880F991F9C01220F331F220F331F220F48
S1133160331F281B390BFB01E20FF31F458316960F
S11331704C911697852F90E0880F991F9C01220F80
S1133180331F220F331F220F331F281B390BFB0160
S1133190E20FF31F468317964C911797852F90E003
S11331A0880F991F9C01220F331F220F331F220FF8
S11331B0331F281B390BFB01E20FF31F4783852FB5
S11331C090E0880F991F9C01220F331F220F331F99
S11331D0220F331F281B390BFB01E20FF31F12963A
S11331E08C9112978087852F90E0880F991F9C01FE
S11331F0220F331F220F331F220F331F281B390BBB
S1133200620F731FFB0111868AE01C968C931C9736
S1133210E7C21BEFC3E8D1E0FF24F394EE24EA9461
S113322004E00F2EF5E0DF2EF02D0E94AB04482FB2
S113323090E0880F991F9C01220F331F220F331F28
S1133240220F331F281B390BFE01E20FF31FF082FC
S1133250842F90E0880F991F9C01220F331F220FA7
S1133260331F220F331F281B390BFE01E20FF31FFC
S11332701182D5015C91842F90E0880F991F9C01E5
S1133280220F331F220F331F220F331F281B390B2A
S1133290FE01E20FF31F5383842F90E0880F991FE0
S11332A09C01220F331F220F331F220F331F281BB1
S11332B0390BFE01E20FF31F1282842F90E0880F76
S11332C0991F9C01220F331F220F331F220F331F1C
S11332D0281B390BFE01E20FF31FE286842F90E0D6
S11332E0880F991F9C01220F331F220F331F220FB7
S11332F0331F281B390BFE01E20FF31F0387842FB2
S113330090E0880F991F9C01220F331F220F331F57
S1133310220F331F281B390BFE01E20FF31F048712
S1133320842F90E0880F991F9C01220F331F220FD6
S1133330331F220F331F281B390BFE01E20FF31F2B
S1133340D58614965C911497842F90E0880F991F6A
S11333509C01220F331F220F331F220F331F281B00
S1133360390BFE01E20FF31F5483842F90E0880F82
S1133370991F9C01220F331F220F331F220F331F6B
S1133380281B390BFE01E20FF31F15968C9115973C
S1133390810F858316965C911697842F90E0880F91
S11333A0991F9C01220F331F220F331F220F331F3B
S11333B0281B390BFE01E20FF31F568317965C910D
S11333C01797842F90E0880F991F9C01220F331FB9
S11333D0220F331F220F331F281B390BFE01E20F6C
S11333E0F31F5783842F90E0880F991F9C01220FAD
S11333F0331F220F331F220F331F281B390BFE01EB
S1133400E20FF31F1086842F90E0880F991F9C0110
S1133410220F331F220F331F220F331F281B390B98
S1133420FE01E20FF31F11861F5F163009F0FDCE77
S11334301BEFC3E8D1E0FF24F394EE24EA9404E004
S11334400F2EF5E0DF2EF02D0E94AB04482F90E004
S1133450880F991F9C01220F331F220F331F220F45
S1133460331F281B390BFE01E20FF31FF082842F58
S113347090E0880F991F9C01220F331F220F331FE6
S1133480220F331F281B390BFE01E20FF31F118299
S1133490F5015081842F90E0880F991F9C01220F21
S11334A0331F220F331F220F331F281B390BFE013A
S11334B0E20FF31F5383842F90E0880F991F9C0120
S11334C0220F331F220F331F220F331F281B390BE8
S11334D0FE01E20FF31F1282842F90E0880F991FE0
S11334E09C01220F331F220F331F220F331F281B6F
S11334F0390BFE01E20FF31FE286842F90E0880F60
S1133500991F9C01220F331F220F331F220F331FD9
S1133510281B390BFE01E20FF31F0387842F90E071
S1133520880F991F9C01220F331F220F331F220F74
S1133530331F281B390BFE01E20FF31F0487842F6E
S113354090E0880F991F9C01220F331F220F331F15
S1133550220F331F281B390BFE01E20FF31FD58600
S1133560D50114965C911497842F90E0880F991FCD
S11335709C01220F331F220F331F220F331F281BDE
S1133580390BFE01E20FF31F548315965C911597D6
S1133590842F90E0880F991F9C01220F331F220F64
S11335A0331F220F331F281B390BFE01E20FF31FB9
S11335B05583842F90E0880F991F9C01220F331F9D
S11335C0220F331F220F331F281B390BFE01E20F7A
S11335D0F31F16968C911697810F868317965C912C
S11335E01797842F90E0880F991F9C01220F331F97
S11335F0220F331F220F331F281B390BFE01E20F4A
S1133600F31F5783842F90E0880F991F9C01220F8A
S1133610331F220F331F220F331F281B390BFE01C8
S1133620E20FF31F1086842F90E0880F991F9C01EE
S1133630220F331F220F331F220F331F281B390B76
S1133640FE01E20FF31F11861F5F163009F0FCCE56
S113365089E11A968C931A971D968C911D978F5F0A
S11336601D968C930E94AB04182FC3E8D1E090E020
S1133670880F991F9C01220F331F220F331F220F23
S1133680331F281B390BFE01E20FF31F01E00083F7
S1133690812F90E0880F991F9C01220F331F220F66
S11336A0331F220F331F281B390BFE01E20FF31FB8
S11336B083E08383F5014481812F90E0880F991F73
S11336C09C01220F331F220F331F220F331F281B8D
S11336D0390BFE01E20FF31F4483D50115964C917B
S11336E01597812F90E0880F991F9C01220F331F9B
S11336F0220F331F220F331F281B390BFE01E20F49
S1133700F31F458316964C911697812F90E0880FEE
S1133710991F9C01220F331F220F331F220F331FC7
S1133720281B390BFE01E20FF31F468317964C91B9
S1133730812F90E0880F991F9C01220F331F220FC5
S1133740331F220F331F281B390BFE01E20FF31F17
S11337504783812F90E0880F991F9C01220F331F0C
S1133760220F331F220F331F281B390BFE01E20FD8
S1133770F31F1086812F90E0880F991F9C01220F60
S1133780331F220F331F220F331F281B390BFE0157
S1133790E20FF31F1186212F30E0220F331FC901DE
S11337A0880F991F880F991F880F991F821B930BED
S11337B08C0F9D1F62E00E94C204812F90E0880F4D
S11337C0991F9C01220F331F220F331F220F331F17
S11337D0281B390BC20FD31F088388E2F5018487A5
S11337E0DF91CF911F910F91FF90EF90DF90CF90D9
S11337F0BF90AF909F908F907F900895FC01808937
S11338008F5F808B883039F4108A05C08F5F808B7E
S1133810883009F4108A8089A82FBB27A7FDB095AA
S1133820AE0FBF1F51969C915197992379F3089538
S1133830FC0180898150808B8F3F49F487E0808B25
S113384006C08150808B8F3F19F4208B01C027E084
S11338508089A82FBB27A7FDB095AE0FBF1F519637
S11338609C915197992369F30895CF93DF93EC01C9
S11338708B85882329F091E0998781508B8702C03A
S11338808FEF8987683379F16933A0F4643309F4DD
S113389046C0653358F46033E9F0613308F06BC017
S11338A0662381F06A3209F066C039C0673309F0D3
S11338B062C035C0633429F1643439F0693309F0E6
S11338C05AC00DC01982188656C0198281E08887B3
S11338D08A8351C019828FEF88878A834CC01982EA
S11338E082E08B8748C08B85882311F082E08B8728
S11338F08981823019F0CE010E94181C82E08983EC
S11339003AC08B85882311F082E08B8789818330CC
S113391019F0CE010E94FE1B83E089832CC08B85A5
S1133920882311F082E08B878C85882321F5898197
S1133930813009F18889992787FD9095FE01E80F68
S1133940F91F2189121614F42150218BCE010E94F3
S1133950C00FE889FF27E7FDF095EC0FFD1F818973
S1133960882319F4CE010E94FE1B81E08983888993
S1133970853009F41982DF91CF9108950196823040
S1133980910550F40E946B00682F89E291E00E9437
S1133990351C80E090E008958FEF9FEF0895019625
S11339A08230910550F40E942401682F8FE091E049
S11339B00E94351C80E090E008958FEF9FEF0895FA
S11339C0CF93DF93EC016881615088E00E94A902E3
S11339D08FEF0E94D3028881805D0E94D3028F8181
S11339E0880F880F9C81890F0E94D3028CE40E9467
S11339F0D3028D858A3024F08BE20E94D30203C067
S1133A00805D0E94D3028C85843120F08BE20E9479
S1133A10D3020AC0882321F481E20E94D30204C0A5
S1133A208695805D0E94D30288898330F1F08430CA
S1133A303CF4813091F08230A4F4882351F029C001
S1133A408530D9F08530ACF08630D9F0873009F56F
S1133A501CC080E50E94D3021FC086E40E94D302EA
S1133A601BC089E40E94D30217C087E50E94D302D9
S1133A7013C082E50E94D3020FC08DE40E94D302DA
S1133A800BC083E40E94D30207C088E40E94D302DF
S1133A9003C08FE30E94D3028889992787FD9095FC
S1133AA0C80FD91F89898F3F21F483EF0E94D30265
S1133AB009C08A3024F08BE20E94D30203C0805DE7
S1133AC00E94D302DF91CF910895EF92FF920F935A
S1133AD01F93CF93DF9380E061E00E94A90282E705
S1133AE090E00E94D6028091130161E00E94A90235
S1133AF081E30E94D30280912D0161E00E94A9021A
S1133B0082E30E94D302C7E8D1E00F2EF7E1EF2E43
S1133B10F8E0FF2EF02D8E01FE013497808188237A
S1133B2009F441C0FE01319780818430E1F5888138
S1133B3061E00E94A902F801329780818330E1F0AC
S1133B40843028F4813081F0823090F409C08530CB
S1133B50D9F08530A8F08630D9F0873009F51CC03B
S1133B6080E50E94D3021FC086E40E94D3021BC0DA
S1133B7089E40E94D30217C087E50E94D30213C0D0
S1133B8082E50E94D3020FC08DE40E94D3020BC0D1
S1133B9083E40E94D30207C088E40E94D30203C0D6
S1133BA08FE30E94D3022E96CE15DF0509F0B3CF22
S1133BB0DF91CF911F910F91FF90EF900895CF93D4
S1133BC0DF93EC01009769F081309105A9F18FEF43
S1133BD0CF3FD80769F481E00E946F021092D400AD
S1133BE028C08091D400843620F10E94EC0224C0C5
S1133BF0209721F0C130D105B9F406C08091D400DA
S1133C008F5F8093D40010C08091D100882361F429
S1133C100E9487098FE091E00E94E01C89E291E014
S1133C200E94E01C0E94651D8C2F9D2FDF91CF9177
S1133C300895C0E0D0E0E2CFC1E0D0E0E5CF81302C
S1133C4071F0813018F08230D9F412C080E061E064
S1133C500E94A9028BE790E00E94D602089580E0BA
S1133C6061E00E94A90284E890E00E94D6020895CF
S1133C7080E061E00E94A9028DE890E00E94D602F3
S1133C8008958330910509F46CC0843091059CF447
S1133C90009779F11816190634F02FEF8F3F920729
S1133CA009F0A0C021C08130910549F1823091050D
S1133CB009F098C02DC08630910509F472C0873090
S1133CC091054CF48430910509F463C08530910565
S1133CD009F088C08CC08730910509F46DC0883024
S1133CE0910509F07FC073C01092D2001092D300E6
S1133CF081C02091D100222309F47CC008958091D1
S1133D00D200882309F08BC081E08093D1007FC06A
S1133D1086B3809560E00E946100882389F08091D9
S1133D20D30090E00E94A42081E08093D20080E040
S1133D3060E00E94A90286E990E00E94D6026FC06A
S1133D4080E060E00E94A9028DE990E00E94D60222
S1133D5080E061E00E94A90289EA90E00E94D60214
S1133D6056C080911C01882331F480913601882348
S1133D7009F46CC065C080913601882309F45AC0E7
S1133D8086B3809560E00E946100882309F04CC0EE
S1133D9046C086B3809560E00E946100882311F1DB
S1133DA043C081E08093D10086B3809560E00E9497
S1133DB061008823C9F53EC081E08093D10086B3B9
S1133DC0809560E00E946100882371F539C081E02C
S1133DD08093D10086B3809560E00E9461008823BF
S1133DE019F534C01092D10085E090E0089580E088
S1133DF090E008950E9403030E94200380E060E0A5
S1133E000E94A9021092D10081E090E0089580916F
S1133E10D3008F5F8093D30082E090E008951092E6
S1133E20D10083E090E0089581E08093D10084E0A4
S1133E3090E0089581E00E941F1E86E090E00895BE
S1133E4082E00E941F1E87E090E0089580E00E94B7
S1133E501F1E88E090E00895CF93DF93CDB7DEB7BF
S1133E602A970FB6F894DEBF0FBECDBF90EF9ABB72
S1133E708FE08BBB2EEF27BB21E028BB94BB85BB17
S1133E808FEF81BB12BADE011196E2EBF0E08AE01B
S1133E9001900D928150E1F74FEF4093D80088E0F4
S1133EA090E0A0E0B0E08093D9009093DA00A09372
S1133EB0DB00B093DC008093DD009093DE00A093E0
S1133EC0DF00B093E00021E43EE13093E200209370
S1133ED0E1004093E3008093E4009093E500A09315
S1133EE0E600B093E7008093E8009093E900A09384
S1133EF0EA00B093EB002FED3DE13093ED00209309
S1133F00EC004093EE008093EF009093F000A093B8
S1133F10F100B093F2008093F3009093F400A09327
S1133F20F500B093F6002FEC3CE13093F8002093B9
S1133F30F7004093F9008093FA009093FB00A0935C
S1133F40FC00B093FD008093FE009093FF00A093CB
S1133F500001B09301012EEB3CE130930301209367
S1133F600201409304018093050190930601A093FC
S1133F700701B09308018093090190930A01A0936B
S1133F800B01B0930C0187ED9EE090930E0180939A
S1133F900D0168E070E080E090E00E94DD010E9485
S1133FA0F00100E010E0CC24DD2441C0F801EE0F64
S1133FB0FF1F81E090E08C0F9D1FE80FF91FE08048
S1133FC0F180F70185819681A781B0854181528175
S1133FD06381748184179507A607B707D1F480819C
S1133FE00184F285E02D992787FD90950995D701E5
S1133FF08C93F801EE0FFF1F81E090E08C0F9D1F62
S1134000E80FF91F0190F081E02D158216821782C6
S11340101086F70185819681A781B0850896A11D38
S1134020B11D85839683A783B0870F5F1F4F05302B
S1134030110508F4BBCF8091D0008823E1F31092DE
S1134040D0008601F4CFAA1BBB1B51E107C0AA1FF5
S1134050BB1FA617B70710F0A61BB70B881F991F25
S11340605A95A9F780959095BC01CD01089597FBC9
S1134070092E07260AD077FD04D0E5DF06D00020FC
S11340801AF4709561957F4F0895F6F79095819590
S11340909F4F08958F929F92AF92BF92CF92DF92DB
S11340A0EF92FF92CF93DF93EC0188819981AA81EB
S11340B0BB810097A105B10521F484E299EDABE53C
S11340C0B7E0BC01CD012DE133EF41E050E00E94A7
S11340D0CE2049015A0127EA31E440E050E00E9431
S11340E0AF206B017C01C501B4012CEE34EF4FEF1E
S11340F05FEF0E94AF20DC01CB01C80ED91EEA1E7F
S1134100FB1EF7FE08C08FEF9FEFAFEFBFE7C80EAF
S1134110D91EEA1EFB1EC882D982EA82FB82C6012E
S11341209F77DF91CF91FF90EF90DF90CF90BF907A
S1134130AF909F908F9008950E944A20089588EC34
S113414090E00E944A200895A0E0B0E08093C80067
S11341509093C900A093CA00B093CB000895629FC6
S1134160D001739FF001829FE00DF11D649FE00D6B
S1134170F11D929FF00D839FF00D749FF00D659FCC
S1134180F00D9927729FB00DE11DF91F639FB00DCB
S1134190E11DF91FBD01CF011124089597FB092EDC
S11341A005260ED057FD04D014D00AD0001C38F4D4
S11341B050954095309521953F4F4F4F5F4F08954F
S11341C0F6F790958095709561957F4F8F4F9F4F2F
S11341D00895A1E21A2EAA1BBB1BFD010DC0AA1F44
S11341E0BB1FEE1FFF1FA217B307E407F50720F05C
S11341F0A21BB30BE40BF50B661F771F881F991FD7
S11342001A9469F760957095809590959B01AC011F
S10D4210BD01CF010895F894FFCF1B
S113421A4C41564120494E43004C4156265241498D
S113422A4E002020202020202020004452415720E4
S113423A2020200050312057494E5321005032206B
S113424A57494E532100536565646564005072658D
S113425A737320526573657400746F2042656769CD
S113426A6E00D800EE00F900E3000401000602041F
S10F427A020E020201000000010000001E
S9030000FC
